:020000041000EA
:1000000000B5324B212058609868022188439860DF
:10001000D860186158612E4B002199600221596106
:100020000121F02299502B49196001219960352056
:1000300000F044F80222904214D00621196600F024
:1000400034F8196E01211966002018661A6600F04E
:100050002CF8196E196E196E052000F02FF8012189
:100060000842F9D1002199601B49196000215960AB
:100070001A491B48016001219960EB211966A021F2
:10008000196600F012F800219960164914480160C1
:100090000121996001BC002800D000471248134993
:1000A000086003C880F30888084703B5996A0420EC
:1000B0000142FBD001200142F8D103BD02B5186610
:1000C0001866FFF7F2FF186E186E02BD00000240BE
:1000D000000000180000070000035F00212200005C
:1000E000F4000018222000A00001001008ED00E03C
:1000F00000000000000000000000000074B24E7A12
:1001000000200420F7010010C3010010C5010010F9
:10011000C1010010C1010010C1010010C101001097
:10012000C1010010C1010010C1010010C701001081
:10013000C1010010C1010010C9010010CB01001065
:10014000CD010010CD010010CD010010CD01001037
:10015000CD010010CD010010CD010010CD01001027
:10016000CD010010CD010010CD010010CD01001017
:10017000CD010010CD010010CD010010CD01001007
:10018000CD010010CD010010CD010010CD010010F7
:10019000CD010010CD010010CD010010CD010010E7
:1001A000CD010010CD010010CD010010CD010010D7
:1001B000CD010010CD010010CD010010CD010010C7
:1001C00000BE00BE00BE00BE00BE00BEEFF3058054
:1001D000103800BEF2EB8871102400103424001097
:1001E0003402001090A31AE700201F49086006C8D7
:1001F00081F3088810471D48006800282FD10DA4FE
:100200000ECC002902D000F012F8F9E71849194A7B
:10021000002000E001C19142FCD1174988471749ED
:1002200088471749884700BEFDE701C901C29A42C5
:10023000FBD3704734240010C000002008040020C5
:100240007C27001000000420000004207C27001000
:10025000001004200010042000000000704709482E
:1002600001F09EFC0047000008ED00E0000000D017
:1002700008040020E8080020191A001009030010E3
:100280000D1B00105756000006005250ABB36053D0
:100290008023001006005250861C03029023001099
:1002A000060052505422A29D9C230010050052507B
:1002B000DE65F4687C270010F8B5C046064807499B
:1002C000091A8B10C90FC91810B5491003D0044B77
:1002D000002B00D0984710BD08040020080400201F
:1002E00000000000054B10B5002B03D00449054861
:1002F00000E000BFFFF7E2FF10BDC04600000000B5
:1003000094070020F822001010B501F08DFE044C77
:10031000200001F007FEFA20800000F087FCF7E7DC
:10032000F8220010094A10B5944640248300634423
:100330001A68C00062408034144080225201134386
:100340001C60034B9C466044416010BD04C00140EA
:1003500000400140024B18688007C00F7047C0463C
:1003600000C0064070B5EFF3108C72B60D4D2B68CF
:10037000002BFCD0BFF35F8F0724CB08C618C05CEE
:1003800001230C40A3401C000440034207D1184342
:100390003070BFF35F8F2C608CF3108870BD10003D
:1003A00001F0B8FB2C0100D00021044B044ABFF33C
:1003B0005F8F02C39342FAD17047C046000100D05C
:1003C000800100D0044A1078431CDBB2172B00D9FF
:1003D000102313707047C046380300200123834068
:1003E000002904D0034A1360034A13607047034A8C
:1003F0001360FBE780E200E000E100E080E100E064
:10040000024B10309B688000C058704700ED00E040
:1004100070B50D00EFF3108672B60F4A1368002B0B
:10042000FCD0BFF35F8F0D4B10309B6884001B59CD
:100430000B4A934203D09D4201D001F083FB074B4E
:100440009B681D51BFF35F8FBFF35F8F0022024B8C
:100450001A6086F3108870BD240100D000ED00E022
:10046000CD010010F8B5DE4657464E4645460C0015
:10047000E0B5EFF3108872B65B4A1368002BFCD02E
:10048000BFF35F8F594B5A499A68030010339F009E
:10049000D5599C468D4238D0A54248D0554EAA1B0E
:1004A0002F2A32D80122130083409946524800680F
:1004B00003409A464B4651480360BFF35F8FEFF30A
:1004C00005839B46002B34D09C4501D001F03AFBBC
:1004D00001232A009A439068844208D172E04B00BD
:1004E0005B189B00F3189868A04232D01A000621CE
:1004F00051560029F3DA844250D05346002B24D0C1
:100500004A463F4B1A603C4B1A60384B9B68DD51A2
:10051000BFF35F8FBFF35F8F0022334B1A6088F306
:100520001088F0BCBB46B246A946A046F8BD0D00F7
:10053000EBE72B00934398681A008442D7D106203A
:100540001856002809DA0D0030E04A462B4B1A6095
:10055000DBE706201856002821DB4200111889002D
:1005600074188B46A1689960E179D97106216156AA
:100570009971002924DBA488F11A640524155C44D0
:10058000091909051F4C490D2143998013181E4A6A
:100590009B001178F31899711070AEE7130059465B
:1005A000002914D1FF3191711849918016490A78B8
:1005B0009A71174A9B1B5B415A43120D0A709CE7C4
:1005C0001249E2E70620105613000028C5DA114A46
:1005D0001149D21A083A5002400D014399800F493F
:1005E00052080A43DA8088E7240100D000ED00E0D9
:1005F000CD0100103C03002000E100E080E100E0BC
:1006000080E200E000E0FFFFE608002001BDFFFF00
:10061000AAAA00007603002000F0FFFF00F8FFFF09
:1006200070B5EFF3058101240443EFF3108C72B62B
:10063000214A1368002BFCD0BFF35F8F1F4B0500CE
:100640001F4AED1A6D416A43120D1E4D8900AE68B6
:1006500052B27658A6421CD00621595691421CD05F
:1006600012215956914222D01E215956914220D032
:100670002A2159560324914210D0134B19781A702D
:100680008171BFF35F8F00220B4B1A608CF31088CF
:1006900070BDAB680D4C5C50EFE700246100091998
:1006A00089005B18FF21997109499980E5E70124C8
:1006B000F4E70224F2E7C046240100D03C03002006
:1006C000AAAA000000ED00E0E6080020CD0100101D
:1006D00001BDFFFF054B064A1360064A13605360D5
:1006E0009360D36013615361936170478080808011
:1006F00000E400E004E400E0024B9C466144890011
:10070000016070474000003410B50400FFF75AFE46
:1007100001002000FFF7F0FFFF232371BFF35F8F7D
:1007200010BDC04610B50400FFF74CFE01002000CC
:10073000FFF7E2FFFF23A380BFF35F8F10BDC0462A
:1007400083680B4810B58446614462441201090174
:1007500059189B185C684A680120944201D802D05D
:100760000020C0B210BD1A680B689A42F9D8F7E7AA
:10077000FFFFFF0F0A4B1968EFF3108072B60A688B
:10078000002AFCD0BFF35F8F1B68BFF35F8F00228E
:100790001A6080F3108840BF002000217047C046D7
:1007A000C8080020F8B557464E464546DE46E0B537
:1007B00098460CAB1C780DAB1B78070091469A4607
:1007C0000668002C57D1B47B002C3AD06500316804
:1007D0002D19033D49194B78B373002B00D1F373E6
:1007E00000238B704B700B702D4BE218BB6812010D
:1007F0009B184A461A6042465A600A9A9A600B9AB7
:10080000DA6000238B704B700B70737B9B46002B60
:1008100024D0220073685946B06898475B465B0055
:1008200032685B44033B5519D21800280FD05B4651
:10083000AB701378002B24D15B46147073735C4546
:100840000DD0F0BCBB46B246A946A046F8BD947098
:100850002B78002B00D053705B462B7074734A4684
:100860004346387D00F0C6FB051E11D10E9B002BC0
:10087000E7D01D70E5E7650031682D19033D491982
:10088000B2E76B705B46147073735C45D9D1E6E7D1
:100890005346002BEAD12100386800F0E1FDE5E77E
:1008A000FFFFFF0F664B8200F0B5D4580023DE46F1
:1008B00057464E4645469B46E0B58DB0099000F040
:1008C00005FB626806000F00EFF3108872B613682C
:1008D000002BFCD0BFF35F8F23689C465B7B99465F
:1008E000002B0DD16368BFF35F8F4A461A6088F30F
:1008F00010880DB0F0BCBB46B246A946A046F0BD7C
:10090000504BA5684B441B01ED182868696802002C
:100910000B00921BBB41002B0EDD02000B0009985F
:1009200000F068FB6368BFF35F8F5A461A6088F374
:1009300010880028C3D1DCE7002B01D1002AECD1BC
:100940000021604600F0F8FCAB6802002868696886
:100950009A46EB680A900B9108934B465D1EE3683C
:10096000585D6368000202432261BFF35F8F5A46FD
:100970001A6088F310885346002BBAD04B4608996A
:100980001843D047626806900791EFF3108872B65B
:100990001368002BFCD0BFF35F8F079B002B27DB76
:1009A000069A079B1100194302D02369002B3BD103
:1009B0002368D97B002906D01A68480041185218CC
:1009C0004946033A51709A7B002A01D14A469A73EC
:1009D0004A46DA73E268535D013353555B4623613F
:1009E0006368BFF35F8F5A461A6088F3108866E722
:1009F0002369002BDCD00A9A0B9B06980799121AE0
:100A00008B41002B02DA01220F4B5242002104914C
:100A10000131039149460291089920000191514604
:100A20000091FFF7BFFED9E700F050FA069A079B46
:100A300012184B41002BE9DA0122034B5242E5E741
:100A4000AC070020FFFFFF0FFFFFFF7F10B5144C26
:100A50006368002B04D00A211248FFF74DFE10BD39
:100A60002300114A1021206800F072FB032000F0DF
:100A700021FA032000F026FB03200C4900F074FA51
:100A8000FFF7A0FC0A4B9C4603232375D0231B06CB
:100A90001B6860446375074B80006060DC60DAE7C8
:100AA00084030020C808002041070010A50800109A
:100AB00040000034AC070020F0B54E465746DE46F5
:100AC0004546E0B587B0019312AB1B78060005934D
:100AD00000239A46994600927268EFF3108B72B623
:100AE0001368002BFCD0BFF35F8F3568AC7B002C04
:100AF00000D170E067002B683F19033FDB195A787B
:100B0000AA73002A00D1EA73464AA118B268090103
:100B100052180098019910605160109991601199D4
:100B2000D1604A469A705A701A706B7B9846002BB7
:100B300061D022006B684146A868984743465B0035
:100B40002A684344033BD719D21800284CD04346A7
:100B5000BB701378002B00D07B70434614706B730E
:100B6000444549D0F3681B19013B18787368BFF3FB
:100B70005F8F4A461A608BF310885346002B08D1CA
:100B80000002204307B0F0BCBB46B246A946A046CF
:100B9000F0BD059B002B43D0109B00201199984776
:100BA00003000B433CD002900391002931DA009BF3
:100BB000019C0299039A5B1A94418022009301944C
:100BC0001206944204D30123174C5B420093019414
:100BD000059B9A4680E77368BFF35F8F1C608BF3B9
:100BE000108801204042CDE794703B78002B00D064
:100BF000537043463B706C73307D009A019B00F04C
:100C0000F9F982460028ADD02100306800F028FCB8
:100C1000A8E700F05BF9029B039C1B184C41CCE752
:100C20000020AFE7FFFFFF0FFFFFFF7FF0B5C646D5
:100C300000B584B0040000F049F9FA2206000F0064
:100C4000200000230021920001F068F8801979410A
:100C500004000D1E02DA01242A4D64420626764263
:100C6000F71736196F41AF4214D811D000F02EF9A2
:100C700032003B00121A8B41002B15DC002B3ED0BA
:100C80002000290000F060F904B080BCB846F0BD37
:100C9000A642EBD90026002700F018F932003B00ED
:100CA000121A8B41002BE9DD002302930193164BAE
:100CB0003200009315483B00FFF7FEFE0130DFD005
:100CC000002339009846124A1248536A994204D8C0
:100CD000976ABE42D4D99942D2D10768EFF3108CFB
:100CE00072B63B68002BFCD0BFF35F8F0368BFF385
:100CF0005F8F47461F608CF3108820BFE5E7002A0E
:100D0000BED0D1E7FFFFFF7F7507001084030020EE
:100D100000400540C8080020F0B5EFF30583C64643
:100D200000B505000C0084B0002B0FD02F4A002026
:100D3000536AA34206D3926A1B1B591E8B41AA42D7
:100D40004041184304B080BCB846F0BD284E029321
:100D50000193284B0200009330000B00FFF7ACFE1C
:100D600000280CDC214A0020536AA342EAD3926A8D
:100D70001B1BAA4240415A1E93411843E2E720BF81
:100D80007268EFF3108772B61368002BFCD0BFF3C4
:100D90005F8FC3B29846FF22336802409C465B7B5C
:100DA00043450DD0634651001B6889185B18033B0F
:100DB0009B78002B04D13269904209D1336107E05E
:100DC000F168030A8A18013A1278DBB29A4207D016
:100DD0007368BFF35F8F00221A6087F31088A5E75E
:100DE0004146604600F03CFBF2E7C046004005404B
:100DF0008403002075070010F0B5EFF30582D64696
:100E00004F4646461000C0B51038EFF3108872B652
:100E1000214C2368002BFCD0BFF35F8F0123190006
:100E200081401E4D1F006963AA461D4D29601D4D5E
:100E30002E78AC463500C5402F402B4215D0534686
:100E40005F6A194B8500EB589F4218D36246174BD7
:100E50008E43EB581670BFF35F8F0022226088F339
:100E60001088002B06D0984704E0BFF35F8F2760FF
:100E700088F31088E0BCBA46B146A846F0BD0C4BDA
:100E800092009C46624413681360BFF35F8F002397
:100E9000236088F31088EDE7280100D0004005406A
:100EA0003C700540E7080020CC08002030060020F8
:100EB000D03F054010B5034B01001800024AFFF770
:100EC00051FA10BDE508002008230010034B596AB1
:100ED0000A00986A596A8A42FAD170470040054070
:100EE00070B504000D00174A536A1900966A536AD8
:100EF0008B42FAD13000190024184D41AB4216D86C
:100F000013D0104B2A005B6A9D4203D90D494B6AEE
:100F10009342FCD3934207D10A4A02E0516A9942B4
:100F200002D1916AA142F9D370BDA642E9D9054B1D
:100F30005B6A1C005A1CEFD0012201246442E517B1
:100F40005242E3E700400540064A536A9942FCD802
:100F500007D1044B02E05A6A914202D19A6A824256
:100F6000F9D370470040054070B504000D00EFF361
:100F7000108672B61A4A1368002BFCD0BFF35F8F3D
:100F8000002D1BD02000FFF73BFA164981420AD002
:100F90002000FFF73DFA01212000FFF71FFA01238F
:100FA000A340114A1360114BA400E550BFF35F8FBB
:100FB00000220B4B1A6086F3108870BD0121A140FE
:100FC0000A4BA200D5500A4B20001A788A430549E3
:100FD0001A70FFF747FA00212000FFF7FFF9E5E755
:100FE000280100D0F90D00103860054030060020BF
:100FF000E7080020F0B54F46D6464646C0B5070084
:101000002B4C616A0D00A66A616AA942FAD18B4233
:1010100008D805D00120E0BCBA46B146A846F0BDCC
:10102000B242F7D9EFF3108A72B62248016800295C
:10103000FCD0BFF35F8F0125BD401F491C4C884683
:10104000097889462943C9B28C46414660460870F2
:10105000391D890065630A511849B8004350216A57
:101060000020294219D0616A0800A66A616A81429B
:10107000FAD18B4219D801D1B24216D8CC450BD047
:101080000B4B1F221D625D6301233A4093400C4AC3
:10109000136043464A461A700120BFF35F8F002257
:1010A000044B1A608AF31088B5E70020F5E7C046C4
:1010B00000400540280100D0E7080020CC080020AF
:1010C00080E200E0EFF3108C72B60A490B68002B47
:1010D000FCD0BFF35F8F01238340074A07481362A8
:1010E00002789A430270BFF35F8F00230B608CF38A
:1010F00010887047280100D000400540E708002014
:1011000070B506000D00140000291CD0002A12D072
:1011100073688068984763006A0031681B19521928
:10112000033B033ACB188918002806D09D700A7833
:10113000002A0AD10C70280070BD8C701A78002A21
:1011400000D04A701D702000F6E75A700C70F2E76C
:1011500010B583600023CCB2437301334260047343
:101160008373C4730068421C012C05D90133DBB2C0
:10117000137003329C42F9D1FF230B405A00D3185D
:10118000C01800230338437010BDC046F8B5CE46E2
:10119000474605000C0080B5002907D04E000368C3
:1011A0007618033E9A195778002F04D12000C0BC4E
:1011B000B946B046F8BD7900C91903398846434499
:1011C000597889460021597051706B683A002100A6
:1011D0008068984743462A68D3189219002811D08E
:1011E0009C701178002900D059701770270049466B
:1011F0002800FFF7CBFF390002002800FFF780FF2F
:101200000400D3E797701978002900D051701C7042
:10121000EDE7C046F8B557464E464546DE464C001B
:10122000E0B5641817000268033C0500105D13194F
:101230000E009C46002854D0430098461B18033BE0
:10124000D31859788A46002920D1002F13D0EC7B7F
:10125000002C51D063001B19D318033B5E70AB7B8D
:10126000002B3CD0EE73002807D04300984643463D
:1012700019180339531800229A70002362465370DC
:10128000F0BCBB46B246A946A046F8BD4900514451
:101290000339521851788846002151708946597097
:1012A000524601002800FFF72BFF43468246002BE1
:1012B00007D05B0029684344033BCB185A78002AC7
:1012C0001FD1424651462800FFF71AFFA4462A685C
:1012D0009444002FC7D0EC7B002CC0D0BAE7AE738B
:1012E000C0E7002FC9D0EC7B002CB3D1AB7B002B27
:1012F00020D1A973E973C0E7AB7B002BEFD0EE736D
:10130000B5E75000801803380918487883464846E6
:101310004870587041462800FFF7F2FE5946804653
:101320002800FFF733FF414602002800FFF7E8FEE0
:101330008046C6E7E973A0E7F8B557464E464546EE
:10134000DE46E0B5467B02687500AD19033D0F002F
:10135000515D531904009C46002956D04B00984615
:101360005B18033BD31858788246002822D1002FFF
:1013700013D0E57B002D53D06B005B19D318033BD2
:101380005E70A37B002B3ED0E673002907D04B0094
:101390009846434658180338131800229A700023C1
:1013A0006246300053706173F0BCBB46B246A9463A
:1013B000A046F8BD400050440338121850788046CB
:1013C000002050708146587052462000FFF798FE6A
:1013D00043468246002B07D05B0021684344033B11
:1013E000CB185A78002A20D1424651462000FFF7F8
:1013F00087FEAC46226801009444002FC5D0E57BEF
:10140000002DBED0B8E7A673BEE7002FC7D0C57BBE
:10141000002DB1D1837B002B20D18673C673BEE72C
:10142000A37B002BEFD0E673B3E75000801803389E
:10143000091848788346484648705870414620004D
:10144000FFF75EFE594680462000FFF79FFE4146AB
:1014500002002000FFF754FE8046C5E7C6739EE7F2
:1014600070B5040000292CD0437B8B422ED0056838
:1014700048004018033828188278002A21D05300E9
:101480009B18033BEA5CEE188A4202D11BE0002A5B
:1014900008D053009B18033BEB185A788A42F6D1C8
:1014A00042785A7000230122837043702000FFF7B6
:1014B000B1FE617B02002000FFF722FE6073012075
:1014C00000E0002070BD43783370EBE70122190083
:1014D000FFF7A0FEF2E7C046F8B5CE464746040047
:1014E00080B506200E0000F023FA051E75D0534B80
:1014F00080229C4200D192E0514BD2031A60514BA2
:1015000051491A6010008B689843FBD14F4B504AE9
:10151000E31859424B4180215B0049000620995253
:1015200000F006FA3100C00000F06CFBC30926D0C1
:10153000484A934200D876E000234749474A61620F
:10154000A362256B9046EB0721D52200C0233032E1
:101550009B011343424A06201A60666AA36AB601D9
:10156000F61800F0E5F93F4900F04CFBB602010027
:10157000300000F047FB0021FFF7B2FC07E04022FB
:10158000012190466162A362256BEB07DDD4270041
:101590008026E36A00232C3776013E433360062021
:1015A000256300F0C5F94146800000F02BFB236B5A
:1015B00005009846DB0715D46023E26A5A400E33D3
:1015C0001340336043462363802310229B013B4337
:1015D0001A60234B23630323A3642800C0BCB946CD
:1015E000B046F8BD2200C02330329B0113431C4A91
:1015F00006201A60636AA26A9B019946914400F032
:1016000097F94B4617499B02994600F0FBFA0100F7
:10161000484600F0F7FA0021FFF762FCCCE7084BE0
:1016200012041A606BE77F2299018846024001325A
:101630005208190090441300A4E7C04600800340FC
:1016400000E0004000F0004000C000400080FCBF0F
:10165000DC080020FEFF0000FFFF0000C0FF3F008D
:10166000010300004E0E000010B50C2082B000F007
:10167000B7F9FEF76FFE002810D08B4B8B488B49D3
:101680008B4A186059609860D960186159619861F7
:10169000D961186259625A6202B010BD854CA067C8
:1016A00000F0A6F90122844B1A60636C012BFCD177
:1016B0000322824B1A607F4A936B012BFCD10133CA
:1016C00001217F4A7F480093043300F037F9052356
:1016D0007D4A009301217D4800F030F97C4B5A6827
:1016E000FF2A02D8802252005A608022734B6E4C2F
:1016F00012011A602169002907D0606900F082FA9E
:10170000013043001B18033BFDD2E023704A7148AF
:1017100011680B40036002231168594001330B40EC
:101720000421036093681942FCD080216A4B0901AF
:1017300019608021694B490051602361684B5A68E8
:10174000FF2A00D85960032201215B4B1A60644ACA
:1017500093681942FCD0E02310680340614803609D
:10176000126803234A40022113405D4A03609368D4
:101770001942FCD080215C4B0901196080215B4B30
:101780004900516063615A4B5A68FF2A00D859607A
:101790008022584B12011A60E169002907D0606964
:1017A00000F030FA013043001B18033BFDD2E02368
:1017B0004F4A11680B4050490B6080214F4B090183
:1017C00019608021394B49005160E3614C4B5A68E4
:1017D000FF2A00D8596080224A4B12011A60216A00
:1017E000002907D0606900F00DFA013043001B1892
:1017F000033BFDD2E023424A11680B4042490B6093
:101800008021424B0901196080235B0053608022D4
:10181000264BD20223623E4B5968914200D25A6055
:1018200080223C4B12011A60616A002907D060696E
:1018300000F0E8F9013043001B18033BFDD2E02320
:10184000334A11680B4034490B608021334B090146
:1018500019608023DB025360154B6362304B5A687A
:10186000FF2A02D8802252005A6080222D4B12019A
:101870001A60A169002907D0606900F0C3F901303E
:1018800043001B18033BFDD2E023254A11680B409F
:1018900025490B608021254B0901196080235B00DD
:1018A0005360124BA361F7E608040020006CDC02D1
:1018B0001BB70000008000403CB0004030B000404A
:1018C000002F685900800240008C864700C002400B
:1018D000308000403090004030A00040001BB70036
:1018E0003C8000403C9000403CA0004040597307C1
:1018F0005480004054B000405490004054A0004038
:101900006080004060B000406090004060A00040F7
:101910006C8000406CB000406C9000406CA00040B7
:101920004880004048B000404890004048A0004037
:10193000014B8000C058704708040020F8B504002F
:1019400022481E0017000D0000F05CF9010038006D
:1019500000F058F9069B36041B031E432368002B36
:1019600022DB1B4B1B49E3185A1E93418022920134
:1019700094465B421B0B184A1B0363441360174ACF
:1019800013601F008A689743FBD1C022231D920178
:101990001A4321232560A06013602368002BFCDA22
:1019A0000823E6601360F8BD3F2322681340AB4272
:1019B000D7D1A3681B051B0D8342D2D1EE22E36869
:1019C000D2021340B342CCD1EDE7C046001BB700B2
:1019D0000040FDBF00C0004000E0004000F00040BB
:1019E0008023024A9B000343D36270470080054076
:1019F000AA23064A1B0113602F230549D360054B18
:101A000019605368002BFCDA7047C0460040024062
:101A100000B0FA00006002402C4B2D4A70B51A60ED
:101A20002C4A2D4B2D491A6014008B689C43FBD126
:101A30002B4D2C4EB54208D2013E761BB60808CD80
:101A4000984723000134B342F9D1FFF70DFE264A2F
:101A5000214B1A60214A9368DB43DB01DD09002B2F
:101A6000F9D14022214B224C224E9A675A671A67BD
:101A7000DA66B44208D223682000002B20D0083454
:101A8000FEF750FEB442F6D31B4C1C4EC022B16888
:101A9000200000F09FF9B460FEF786FCFEF71AFE06
:101AA000FEF7D4FF164C174EB44208D2013E361B47
:101AB000B60808CC98472B0001359E42F9D170BD7D
:101AC0000834FEF721FEB442D5D3DDE700E0004044
:101AD000BFCDFBFEFE7F3C0000F0004000C0004098
:101AE000F003002000040020FFFFFF0100F0014090
:101AF000E8030020F00300200000002000ED00E0DB
:101B0000000400200804002000BEFDE710B5FFF728
:101B1000FBFFC0460FB400B5084883B000F002FADE
:101B2000049B002B07D005A91800019100F018F8BC
:101B3000034800F0F7F90120FFF7E6FF2C2300101F
:101B40003C23001010B50148FFF7E4FF40230010CC
:101B500010B5002800D110BD00F09AF9FBE7C0468F
:101B600010B5094A0300146884B0002C08D0012283
:101B700000910648524203A9A047012004B010BDBD
:101B800000F0D0F90020F9E790070020511B001069
:101B900001480421014B1847B0030020C11B00106D
:101BA000002310B50100988A1B8B984710BDC046D2
:101BB000162310B50100188802331B88984710BD02
:101BC000F8B54746CE4680B50F1E18D01423994667
:101BD000043304000025012698464B4618884346E6
:101BE00021681B88984701C4431E9841013506406F
:101BF000AF42F2D13000C0BCB946B046F8BD0126B4
:101C0000F8E7C046114A936F9B0813D210665166DD
:101C1000002905D0FFE7FFE7FFE7516F106F70471E
:101C200004B5002801D00020C04300F055FB00217E
:101C300004BDC046F0B5146E556E576F166FFFF7B2
:101C4000E5FF1466556657671667F0BD000000D0C3
:101C500010B50148FFF75EFF4C230010132370B549
:101C60001D78012D15D010DD1B48FFF7A1FF1B4C7F
:101C700001008022200000F0ADF8022D06D01848A7
:101C8000FFF78EFF174B186070BD144C164BA36402
:101C9000F5E7164B114C23606360A360E36023619A
:101CA0006361A361E36123626362A362E36223630E
:101CB0006363A363E36323646364A364E3642365EE
:101CC0006365A365E36523666366A366E3662367CE
:101CD0006367A367E367D9E753440000300500203A
:101CE0004C330000C4070020F11C0010511C0010F0
:101CF00007B5604601880A0A0230DF2AFAD1C9B264
:101D0000820804D3028840880004104300E0006881
:101D1000014A5050039007BD300500205143434312
:101D2000C9188C46110C83B24B4310B4040C6143A8
:101D300092B280B2504362431C041B0C001910BCC9
:101D400059411304120CC0185141614470470000FE
:101D500010B50148FFF7DEFE64230010132310B511
:101D600010481C78FFF724FF0100012C0AD003DD86
:101D700080220D4800F02EF80C48FFF711FF0C4BA5
:101D8000186010BD084C5422200000F023F82200F7
:101D9000084980322368002B00D12160043494422A
:101DA000F8D1E9E753460000C80700204C33000093
:101DB000C4070020511D001001480421014B1847A1
:101DC000C0030020C11B0010014B1B681847000016
:101DD000C0030020014B5B6818470000C0030020CF
:101DE000F0B5C64600B5437D07000C001600002B79
:101DF00046D0002A17DD0B780A2B24D00023984602
:101E0000012E13D001252900635C01350A2B26D051
:101E1000B542F8D1464509DCA419013C23780D3BB5
:101E20005A4253413B7580BCB846F0BD4346E0186A
:101E3000A419F11A013C3B68984723780D3B5A429C
:101E400053413B75EFE7037D002BD7D102210F48AB
:101E50003B689847012EDFD001239846D2E7631EE6
:101E60005B5C0D2BD4D0884504DA4346C91AE018D0
:101E70003B689847022105483B68A8469847C7E752
:101E80000368110020009847CDE7C046F8230010F2
:101E9000F0B5CE46474680B583B06B460600DD1DE3
:101EA0002870FFF713F80023194A12184B41002B32
:101EB00002DA0122174B524217490800884600F007
:101EC00013FA164B81461C68002C14D0144F02E004
:101ED0002469002C0FD02368002BF9D03B68002B1D
:101EE00001D09C42F4D1200001222900FFF778FFA5
:101EF0002469002CEFD14B46002B05D1300003B0F4
:101F0000C0BCB946B046F0BD404600F0DDF9F5E78B
:101F100040420F00FFFFFF7FE803002088070020FA
:101F20008C070020F0B5DE464E4645465746E0B5E4
:101F300083B0060000F090F90500FEF7C7FF00230C
:101F4000284A12184B41002B02DA0122264B52423A
:101F5000264908008B4600F0C7F9254B81461C68CE
:101F60009A46002C38D00A23224F984602E0246972
:101F7000002C17D02368002BF9D03B68002B01D030
:101F80009C42F4D120002A003100FFF729FF6B4664
:101F900042462000DA71D91D0122FFF721FF246992
:101FA000002CE7D14B46002B18D153461C68002C5F
:101FB00006D06368002B0BD098472469002CF8D119
:101FC000280003B0F0BCBB46B246A946A046F0BD0F
:101FD0002469002CEDD1F3E70028F1D0584600F039
:101FE00073F9E2E740420F00FFFFFF7FE8030020A4
:101FF000880700208C0700200A4A1368002B05D1AF
:102000000CE01A001B691032002B07D08342F8D174
:10201000002902D118691060196170470029FCD0AD
:102020001060FAE78807002010B500F0CBF8012017
:1020300010BDC046F0B5002915DD0E4B0D271A68FE
:102040000D4B0E4CD3185D426B41451820215B00AF
:102050001E5F0478A64207D093691942FCD1013073
:102060001460A842F5D1F0BD93691942FCD1176004
:10207000F2E7C046E00800200080FCBFDC0800203A
:10208000214B70B504000D1E1E682CDD00201021B0
:102090001E4B013C1A689369194215D101309369AE
:1020A0001942FCD1136823548542F4D1002E09D083
:1020B000502338219363536B3432194080235B01E2
:1020C00013431960280070BD002E09D05023382119
:1020D0009363536B3432194080235B011A431160C0
:1020E0000028F0D10DE0002E0BD050223821074BF4
:1020F0001B689A635A6B3433114080225201134398
:10210000196003204042DEE740070020E00800207D
:10211000064B10B51B68002B06D00021044A12683C
:102120009163044A1068984710BDC04640070020DC
:10213000E0080020440700201D4BF0B51A68C64691
:1021400098461C4B0E00D31859424B411A4F14337A
:102150001C00050000B53B68002807D0002B11D0FB
:10216000164B3D601E6080BCB846F0BD002BF7D01A
:10217000906300212000FEF731F920001049FEF79E
:1021800071F9EDE720000E49FEF742F90121200028
:10219000FEF724F94346502238211B689A635A6B94
:1021A000343311408022520113431960D8E7C046EE
:1021B000E00800200080FCBF40070020440700200A
:1021C000112100100C4B10B51B780C4B0C4C1B78DC
:1021D0000C4B022100202360FEF7A4F8022101200D
:1021E000FEF7A0F8E12120684902FFF775F9012107
:1021F0000548FFF701FF10BD302400102C2400100B
:10220000E008002000400340D003002010B5024841
:1022100000F004F810BDC046BC07002010B588B01F
:1022200004000D2200216846FFF7CEFD0D2200219B
:1022300004A8FFF7C9FD4B236A466846137004A93A
:102240000D2200F039F81521082220006944FFF71B
:10225000C1FD08B010BDC04610B583070AD0030009
:10226000032102E001330B4205D01A78002AF9D18C
:10227000181A10BD030019680C4A0D4C8A188A43BD
:1022800022420FD15968094A04338A188A432242EC
:1022900008D15968054A04338A188A432242F1D08A
:1022A00000E001331A78002AFBD1E1E7FFFEFEFED1
:1022B00080808080F8B5C04601B40248844601BCE5
:1022C000604700BFF501002001B40248844601BC0C
:1022D000604700BF5901002001B40248844601BC98
:1022E000604700BF2503002001B40248844601BCBA
:0822F000604700BFC10000209F
:1022F80048656C6C6F2C20776F726C64210000004D
:10230800486172647761726520616C61726D202525
:102318006420616C726561647920636C61696D65C4
:10232800640000000A2A2A2A2050414E4943202AE4
:102338002A2A0A000A000000486172642061737347
:10234800657274006D697373696E6720646F756276
:102358006C652066756E6374696F6E00000000001E
:1023680052656C6561736500626F6F74325F7732B6
:102378003571303830000000312E352E3100000024
:102388007069636F5F7700007069636F775F626C75
:10239800696E6B004D617920203220323032350071
:1023A8005541525420737464696E0000554152546B
:1023B800207374646F7574005541525420737464AB
:1023C800696E202F207374646F7574000600525074
:1023D800D3F075426823001006005250E182887FCE
:1023E8007023001006005250BBFF3CB68823001033
:1023F8000D0A00000600525053B4F4A1C023001087
:08240800080052509200000090
:10241000D4230010E023001088020010EC230010E9
:1024200094020010A0020010AC020010082400105A
:04243000FC23001079
:10243400F0B5C646150000B504001E000268EFF3AF
:10244400108172B61368002BFCD0BFF35F8F042396
:10245400E3562268002B2BDBBFF35F8F0020106054
:1024640081F31088D02212061278002752B29046C7
:102474009A420ED1002080BCB846F0BDBFF35F8FF6
:10248400176081F310882800310000F005F9002856
:10249400F0D12268EFF3108172B61368002BFCD0E0
:1024A400BFF35F8F237922687F2BE7D9434602E08D
:1024B400D0231B061B682371BFF35F8F00231360B7
:1024C40081F310880120D6E70268EFF3108172B619
:1024D4001368002BFCD0BFF35F8FFF2303710368E5
:1024E400BFF35F8F00221A6081F3108840BF7047EA
:1024F40010B5084C2378002B0AD1802306480749DD
:102504005B051A68C25004338B42FAD1012323704D
:1025140010BDC046E4080020400600100001001071
:1025240010B5014B984710BD41060020034B1A68B3
:10253400C0239B009343024A136070470C80014000
:102544000C900140054B1A6880239B005340C02225
:1025540092001340024A13607047C0460C80014049
:102564000C9001400023F0B5DE4657464E464546E2
:102574009A46E0B583B001900E00988A42491B8BBD
:1025840014009847534681464049988A1B8B9847C4
:1025940053463F490500988A1B8B98478046FFF7AE
:1025A400A7FFC847A847FFF7CDFF251E22D0082361
:1025B400C0219C460220490562468B6A1A40184293
:1025C4003CD0631B002D2CD1002A11D1002C11D03A
:1025D400C0235B059B4602239A46063399465B4615
:1025E4004A4657469B6A1A401F423FD0002AF6D0FB
:1025F400002C2DD1FFF79AFFC047FFF791FF03B0DE
:10260400F0BCBB46B246A946A046F0BD002C2FD173
:10261400C0225205926A914608224F463A40BF07AB
:102624002DD50D2B1BD9002AF0D1C0225205926A58
:10263400914608224F463A40BF07F2D4002A04D1FB
:102644002B002343002BB7D1D4E72B00002CF9D067
:102654000B6E013C3370230001362B43F2E7019FDC
:10266400013D3B7801370B660197E7E70025E5E775
:10267400C0235B051B6E013C337001369CE72B00C5
:10268400002ADFD1DCE7C046494600004558000077
:10269400464300007047C04601B40248844601BC6A
:1026A400604700BF190D001010000000000000007A
:1026B4000000010000000000000000000000020013
:1026C4000000000000000000000003000000000003
:1026D400000000000000FF000000000001B5486891
:1026E40001318E460047704609380149884701BDCB
:1026F400210600109C03002000000000300400208C
:1027040048070020000000000000000058070020D7
:1027140000000000000000001000000000000000A5
:10272400503300004C330000543300005233000097
:102734004D5300004D430000533400004334000067
:102744003520001000000000812000103921001005
:102754000000000000010000000000000000000074
:10276400B91D0010911B00105D1C00105D1D0010B0
:08277400E50200100D22001027
:04000005100001E9FD
:00000001FF
